{
  "_format": "hh-sol-artifact-1",
  "contractName": "Domains",
  "sourceName": "contracts/Domains.sol",
  "abi": [
    {
      "inputs": [
        {
          "internalType": "string",
          "name": "_tld",
          "type": "string"
        }
      ],
      "stateMutability": "payable",
      "type": "constructor"
    },
    {
      "inputs": [],
      "name": "AlreadyRegistered",
      "type": "error"
    },
    {
      "inputs": [
        {
          "internalType": "string",
          "name": "name",
          "type": "string"
        }
      ],
      "name": "InvalidName",
      "type": "error"
    },
    {
      "inputs": [],
      "name": "Unauthorized",
      "type": "error"
    },
    {
      "anonymous": false,
      "inputs": [
        {
          "indexed": true,
          "internalType": "address",
          "name": "owner",
          "type": "address"
        },
        {
          "indexed": true,
          "internalType": "address",
          "name": "approved",
          "type": "address"
        },
        {
          "indexed": true,
          "internalType": "uint256",
          "name": "tokenId",
          "type": "uint256"
        }
      ],
      "name": "Approval",
      "type": "event"
    },
    {
      "anonymous": false,
      "inputs": [
        {
          "indexed": true,
          "internalType": "address",
          "name": "owner",
          "type": "address"
        },
        {
          "indexed": true,
          "internalType": "address",
          "name": "operator",
          "type": "address"
        },
        {
          "indexed": false,
          "internalType": "bool",
          "name": "approved",
          "type": "bool"
        }
      ],
      "name": "ApprovalForAll",
      "type": "event"
    },
    {
      "anonymous": false,
      "inputs": [
        {
          "indexed": true,
          "internalType": "address",
          "name": "from",
          "type": "address"
        },
        {
          "indexed": true,
          "internalType": "address",
          "name": "to",
          "type": "address"
        },
        {
          "indexed": true,
          "internalType": "uint256",
          "name": "tokenId",
          "type": "uint256"
        }
      ],
      "name": "Transfer",
      "type": "event"
    },
    {
      "inputs": [
        {
          "internalType": "address",
          "name": "to",
          "type": "address"
        },
        {
          "internalType": "uint256",
          "name": "tokenId",
          "type": "uint256"
        }
      ],
      "name": "approve",
      "outputs": [],
      "stateMutability": "nonpayable",
      "type": "function"
    },
    {
      "inputs": [
        {
          "internalType": "address",
          "name": "owner",
          "type": "address"
        }
      ],
      "name": "balanceOf",
      "outputs": [
        {
          "internalType": "uint256",
          "name": "",
          "type": "uint256"
        }
      ],
      "stateMutability": "view",
      "type": "function"
    },
    {
      "inputs": [
        {
          "internalType": "string",
          "name": "",
          "type": "string"
        }
      ],
      "name": "domains",
      "outputs": [
        {
          "internalType": "address",
          "name": "",
          "type": "address"
        }
      ],
      "stateMutability": "view",
      "type": "function"
    },
    {
      "inputs": [
        {
          "internalType": "string",
          "name": "name",
          "type": "string"
        }
      ],
      "name": "getAddress",
      "outputs": [
        {
          "internalType": "address",
          "name": "",
          "type": "address"
        }
      ],
      "stateMutability": "view",
      "type": "function"
    },
    {
      "inputs": [],
      "name": "getAllNames",
      "outputs": [
        {
          "internalType": "string[]",
          "name": "",
          "type": "string[]"
        }
      ],
      "stateMutability": "view",
      "type": "function"
    },
    {
      "inputs": [
        {
          "internalType": "uint256",
          "name": "tokenId",
          "type": "uint256"
        }
      ],
      "name": "getApproved",
      "outputs": [
        {
          "internalType": "address",
          "name": "",
          "type": "address"
        }
      ],
      "stateMutability": "view",
      "type": "function"
    },
    {
      "inputs": [
        {
          "internalType": "string",
          "name": "name",
          "type": "string"
        }
      ],
      "name": "getRecord",
      "outputs": [
        {
          "internalType": "string",
          "name": "",
          "type": "string"
        }
      ],
      "stateMutability": "view",
      "type": "function"
    },
    {
      "inputs": [
        {
          "internalType": "address",
          "name": "owner",
          "type": "address"
        },
        {
          "internalType": "address",
          "name": "operator",
          "type": "address"
        }
      ],
      "name": "isApprovedForAll",
      "outputs": [
        {
          "internalType": "bool",
          "name": "",
          "type": "bool"
        }
      ],
      "stateMutability": "view",
      "type": "function"
    },
    {
      "inputs": [],
      "name": "isOwner",
      "outputs": [
        {
          "internalType": "bool",
          "name": "",
          "type": "bool"
        }
      ],
      "stateMutability": "view",
      "type": "function"
    },
    {
      "inputs": [],
      "name": "name",
      "outputs": [
        {
          "internalType": "string",
          "name": "",
          "type": "string"
        }
      ],
      "stateMutability": "view",
      "type": "function"
    },
    {
      "inputs": [
        {
          "internalType": "uint256",
          "name": "",
          "type": "uint256"
        }
      ],
      "name": "names",
      "outputs": [
        {
          "internalType": "string",
          "name": "",
          "type": "string"
        }
      ],
      "stateMutability": "view",
      "type": "function"
    },
    {
      "inputs": [],
      "name": "owner",
      "outputs": [
        {
          "internalType": "address payable",
          "name": "",
          "type": "address"
        }
      ],
      "stateMutability": "view",
      "type": "function"
    },
    {
      "inputs": [
        {
          "internalType": "uint256",
          "name": "tokenId",
          "type": "uint256"
        }
      ],
      "name": "ownerOf",
      "outputs": [
        {
          "internalType": "address",
          "name": "",
          "type": "address"
        }
      ],
      "stateMutability": "view",
      "type": "function"
    },
    {
      "inputs": [
        {
          "internalType": "string",
          "name": "name",
          "type": "string"
        }
      ],
      "name": "price",
      "outputs": [
        {
          "internalType": "uint256",
          "name": "",
          "type": "uint256"
        }
      ],
      "stateMutability": "pure",
      "type": "function"
    },
    {
      "inputs": [
        {
          "internalType": "string",
          "name": "",
          "type": "string"
        }
      ],
      "name": "records",
      "outputs": [
        {
          "internalType": "string",
          "name": "",
          "type": "string"
        }
      ],
      "stateMutability": "view",
      "type": "function"
    },
    {
      "inputs": [
        {
          "internalType": "string",
          "name": "name",
          "type": "string"
        }
      ],
      "name": "register",
      "outputs": [],
      "stateMutability": "payable",
      "type": "function"
    },
    {
      "inputs": [
        {
          "internalType": "address",
          "name": "from",
          "type": "address"
        },
        {
          "internalType": "address",
          "name": "to",
          "type": "address"
        },
        {
          "internalType": "uint256",
          "name": "tokenId",
          "type": "uint256"
        }
      ],
      "name": "safeTransferFrom",
      "outputs": [],
      "stateMutability": "nonpayable",
      "type": "function"
    },
    {
      "inputs": [
        {
          "internalType": "address",
          "name": "from",
          "type": "address"
        },
        {
          "internalType": "address",
          "name": "to",
          "type": "address"
        },
        {
          "internalType": "uint256",
          "name": "tokenId",
          "type": "uint256"
        },
        {
          "internalType": "bytes",
          "name": "data",
          "type": "bytes"
        }
      ],
      "name": "safeTransferFrom",
      "outputs": [],
      "stateMutability": "nonpayable",
      "type": "function"
    },
    {
      "inputs": [
        {
          "internalType": "address",
          "name": "operator",
          "type": "address"
        },
        {
          "internalType": "bool",
          "name": "approved",
          "type": "bool"
        }
      ],
      "name": "setApprovalForAll",
      "outputs": [],
      "stateMutability": "nonpayable",
      "type": "function"
    },
    {
      "inputs": [
        {
          "internalType": "string",
          "name": "name",
          "type": "string"
        },
        {
          "internalType": "string",
          "name": "record",
          "type": "string"
        }
      ],
      "name": "setRecord",
      "outputs": [],
      "stateMutability": "nonpayable",
      "type": "function"
    },
    {
      "inputs": [
        {
          "internalType": "bytes4",
          "name": "interfaceId",
          "type": "bytes4"
        }
      ],
      "name": "supportsInterface",
      "outputs": [
        {
          "internalType": "bool",
          "name": "",
          "type": "bool"
        }
      ],
      "stateMutability": "view",
      "type": "function"
    },
    {
      "inputs": [],
      "name": "symbol",
      "outputs": [
        {
          "internalType": "string",
          "name": "",
          "type": "string"
        }
      ],
      "stateMutability": "view",
      "type": "function"
    },
    {
      "inputs": [],
      "name": "tld",
      "outputs": [
        {
          "internalType": "string",
          "name": "",
          "type": "string"
        }
      ],
      "stateMutability": "view",
      "type": "function"
    },
    {
      "inputs": [
        {
          "internalType": "uint256",
          "name": "tokenId",
          "type": "uint256"
        }
      ],
      "name": "tokenURI",
      "outputs": [
        {
          "internalType": "string",
          "name": "",
          "type": "string"
        }
      ],
      "stateMutability": "view",
      "type": "function"
    },
    {
      "inputs": [
        {
          "internalType": "address",
          "name": "from",
          "type": "address"
        },
        {
          "internalType": "address",
          "name": "to",
          "type": "address"
        },
        {
          "internalType": "uint256",
          "name": "tokenId",
          "type": "uint256"
        }
      ],
      "name": "transferFrom",
      "outputs": [],
      "stateMutability": "nonpayable",
      "type": "function"
    },
    {
      "inputs": [
        {
          "internalType": "string",
          "name": "name",
          "type": "string"
        }
      ],
      "name": "valid",
      "outputs": [
        {
          "internalType": "bool",
          "name": "",
          "type": "bool"
        }
      ],
      "stateMutability": "pure",
      "type": "function"
    },
    {
      "inputs": [],
      "name": "withdraw",
      "outputs": [],
      "stateMutability": "nonpayable",
      "type": "function"
    }
  ],
  "bytecode": "0x6080604052604051806108a0016040528061086b8152602001620052ee61086b91396009908051906020019062000038929190620002c4565b506040518060400160405280600d81526020017f3c2f746578743e3c2f7376673e00000000000000000000000000000000000000815250600a908051906020019062000086929190620002c4565b5060405162005b5938038062005b598339818101604052810190620000ac919062000511565b6040518060400160405280601381526020017f4f6b77617265204e616d652053657276696365000000000000000000000000008152506040518060400160405280600381526020017f4f4e530000000000000000000000000000000000000000000000000000000000815250816000908051906020019062000130929190620002c4565b50806001908051906020019062000149929190620002c4565b50505033600e60006101000a81548173ffffffffffffffffffffffffffffffffffffffff021916908373ffffffffffffffffffffffffffffffffffffffff1602179055508060089080519060200190620001a5929190620002c4565b50620001f16040518060400160405280601681526020017f646f6d61696e20636f6e74726174206164647265737300000000000000000000815250620001f860201b62001b311760201c565b5062000648565b62000298816040516024016200020f9190620005bf565b6040516020818303038152906040527f41304fac000000000000000000000000000000000000000000000000000000007bffffffffffffffffffffffffffffffffffffffffffffffffffffffff19166020820180517bffffffffffffffffffffffffffffffffffffffffffffffffffffffff83818316178352505050506200029b60201b60201c565b50565b60008151905060006a636f6e736f6c652e6c6f679050602083016000808483855afa5050505050565b828054620002d29062000612565b90600052602060002090601f016020900481019282620002f6576000855562000342565b82601f106200031157805160ff191683800117855562000342565b8280016001018555821562000342579182015b828111156200034157825182559160200191906001019062000324565b5b50905062000351919062000355565b5090565b5b808211156200037057600081600090555060010162000356565b5090565b6000604051905090565b600080fd5b600080fd5b600080fd5b600080fd5b6000601f19601f8301169050919050565b7f4e487b7100000000000000000000000000000000000000000000000000000000600052604160045260246000fd5b620003dd8262000392565b810181811067ffffffffffffffff82111715620003ff57620003fe620003a3565b5b80604052505050565b60006200041462000374565b9050620004228282620003d2565b919050565b600067ffffffffffffffff821115620004455762000444620003a3565b5b620004508262000392565b9050602081019050919050565b60005b838110156200047d57808201518184015260208101905062000460565b838111156200048d576000848401525b50505050565b6000620004aa620004a48462000427565b62000408565b905082815260208101848484011115620004c957620004c86200038d565b5b620004d68482856200045d565b509392505050565b600082601f830112620004f657620004f562000388565b5b81516200050884826020860162000493565b91505092915050565b6000602082840312156200052a57620005296200037e565b5b600082015167ffffffffffffffff8111156200054b576200054a62000383565b5b6200055984828501620004de565b91505092915050565b600081519050919050565b600082825260208201905092915050565b60006200058b8262000562565b6200059781856200056d565b9350620005a98185602086016200045d565b620005b48162000392565b840191505092915050565b60006020820190508181036000830152620005db81846200057e565b905092915050565b7f4e487b7100000000000000000000000000000000000000000000000000000000600052602260045260246000fd5b600060028204905060018216806200062b57607f821691505b60208210811415620006425762000641620005e3565b5b50919050565b614c9680620006586000396000f3fe60806040526004361061019c5760003560e01c806370a08231116100ec578063bf40fac11161008a578063e985e9c511610064578063e985e9c514610624578063f2c298be14610661578063fb825e5f1461067d578063fe2c6198146106a85761019c565b8063bf40fac114610581578063c1880a98146105be578063c87b56dd146105e75761019c565b806395d89b41116100c657806395d89b41146104c75780639791c097146104f2578063a22cb4651461052f578063b88d4fde146105585761019c565b806370a08231146104345780638da5cb5b146104715780638f32d59b1461049c5761019c565b8063264492351161015957806342842e0e1161013357806342842e0e146103545780634622ab031461037d578063541e771d146103ba5780636352211e146103f75761019c565b806326449235146102d55780632d551432146103125780633ccfd60b1461033d5761019c565b806301ffc9a7146101a157806306fdde03146101de578063081812fc14610209578063095ea7b31461024657806311dd88451461026f57806323b872dd146102ac575b600080fd5b3480156101ad57600080fd5b506101c860048036038101906101c3919061327a565b6106e5565b6040516101d591906132c2565b60405180910390f35b3480156101ea57600080fd5b506101f36107c7565b6040516102009190613376565b60405180910390f35b34801561021557600080fd5b50610230600480360381019061022b91906133ce565b610859565b60405161023d919061343c565b60405180910390f35b34801561025257600080fd5b5061026d60048036038101906102689190613483565b61089f565b005b34801561027b57600080fd5b5061029660048036038101906102919190613528565b6109b7565b6040516102a39190613376565b60405180910390f35b3480156102b857600080fd5b506102d360048036038101906102ce9190613575565b610a6a565b005b3480156102e157600080fd5b506102fc60048036038101906102f791906136f8565b610aca565b604051610309919061343c565b60405180910390f35b34801561031e57600080fd5b50610327610b13565b6040516103349190613376565b60405180910390f35b34801561034957600080fd5b50610352610ba1565b005b34801561036057600080fd5b5061037b60048036038101906103769190613575565b610c67565b005b34801561038957600080fd5b506103a4600480360381019061039f91906133ce565b610c87565b6040516103b19190613376565b60405180910390f35b3480156103c657600080fd5b506103e160048036038101906103dc91906136f8565b610d27565b6040516103ee9190613376565b60405180910390f35b34801561040357600080fd5b5061041e600480360381019061041991906133ce565b610ddd565b60405161042b919061343c565b60405180910390f35b34801561044057600080fd5b5061045b60048036038101906104569190613741565b610e64565b604051610468919061377d565b60405180910390f35b34801561047d57600080fd5b50610486610f1c565b60405161049391906137b9565b60405180910390f35b3480156104a857600080fd5b506104b1610f42565b6040516104be91906132c2565b60405180910390f35b3480156104d357600080fd5b506104dc610f9a565b6040516104e99190613376565b60405180910390f35b3480156104fe57600080fd5b5061051960048036038101906105149190613528565b61102c565b60405161052691906132c2565b60405180910390f35b34801561053b57600080fd5b5061055660048036038101906105519190613800565b6110e0565b005b34801561056457600080fd5b5061057f600480360381019061057a91906138e1565b6110f6565b005b34801561058d57600080fd5b506105a860048036038101906105a39190613528565b611158565b6040516105b5919061343c565b60405180910390f35b3480156105ca57600080fd5b506105e560048036038101906105e09190613964565b6111a3565b005b3480156105f357600080fd5b5061060e600480360381019061060991906133ce565b61127e565b60405161061b9190613376565b60405180910390f35b34801561063057600080fd5b5061064b600480360381019061064691906139e5565b611391565b60405161065891906132c2565b60405180910390f35b61067b60048036038101906106769190613528565b611425565b005b34801561068957600080fd5b506106926118ca565b60405161069f9190613b31565b60405180910390f35b3480156106b457600080fd5b506106cf60048036038101906106ca9190613528565b611a8b565b6040516106dc919061377d565b60405180910390f35b60007f80ac58cd000000000000000000000000000000000000000000000000000000007bffffffffffffffffffffffffffffffffffffffffffffffffffffffff1916827bffffffffffffffffffffffffffffffffffffffffffffffffffffffff191614806107b057507f5b5e139f000000000000000000000000000000000000000000000000000000007bffffffffffffffffffffffffffffffffffffffffffffffffffffffff1916827bffffffffffffffffffffffffffffffffffffffffffffffffffffffff1916145b806107c057506107bf82611bca565b5b9050919050565b6060600080546107d690613b82565b80601f016020809104026020016040519081016040528092919081815260200182805461080290613b82565b801561084f5780601f106108245761010080835404028352916020019161084f565b820191906000526020600020905b81548152906001019060200180831161083257829003601f168201915b5050505050905090565b600061086482611c34565b6004600083815260200190815260200160002060009054906101000a900473ffffffffffffffffffffffffffffffffffffffff169050919050565b60006108aa82610ddd565b90508073ffffffffffffffffffffffffffffffffffffffff168373ffffffffffffffffffffffffffffffffffffffff16141561091b576040517f08c379a000000000000000000000000000000000000000000000000000000000815260040161091290613c26565b60405180910390fd5b8073ffffffffffffffffffffffffffffffffffffffff1661093a611c7f565b73ffffffffffffffffffffffffffffffffffffffff161480610969575061096881610963611c7f565b611391565b5b6109a8576040517f08c379a000000000000000000000000000000000000000000000000000000000815260040161099f90613cb8565b60405180910390fd5b6109b28383611c87565b505050565b6060600c83836040516109cb929190613d08565b908152602001604051809103902080546109e490613b82565b80601f0160208091040260200160405190810160405280929190818152602001828054610a1090613b82565b8015610a5d5780601f10610a3257610100808354040283529160200191610a5d565b820191906000526020600020905b815481529060010190602001808311610a4057829003601f168201915b5050505050905092915050565b610a7b610a75611c7f565b82611d40565b610aba576040517f08c379a0000000000000000000000000000000000000000000000000000000008152600401610ab190613d93565b60405180910390fd5b610ac5838383611dd5565b505050565b600b818051602081018201805184825260208301602085012081835280955050505050506000915054906101000a900473ffffffffffffffffffffffffffffffffffffffff1681565b60088054610b2090613b82565b80601f0160208091040260200160405190810160405280929190818152602001828054610b4c90613b82565b8015610b995780601f10610b6e57610100808354040283529160200191610b99565b820191906000526020600020905b815481529060010190602001808311610b7c57829003601f168201915b505050505081565b610ba9610f42565b610bb257600080fd5b600047905060003373ffffffffffffffffffffffffffffffffffffffff1682604051610bdd90613de4565b60006040518083038185875af1925050503d8060008114610c1a576040519150601f19603f3d011682016040523d82523d6000602084013e610c1f565b606091505b5050905080610c63576040517f08c379a0000000000000000000000000000000000000000000000000000000008152600401610c5a90613e45565b60405180910390fd5b5050565b610c82838383604051806020016040528060008152506110f6565b505050565b600d6020528060005260406000206000915090508054610ca690613b82565b80601f0160208091040260200160405190810160405280929190818152602001828054610cd290613b82565b8015610d1f5780601f10610cf457610100808354040283529160200191610d1f565b820191906000526020600020905b815481529060010190602001808311610d0257829003601f168201915b505050505081565b600c818051602081018201805184825260208301602085012081835280955050505050506000915090508054610d5c90613b82565b80601f0160208091040260200160405190810160405280929190818152602001828054610d8890613b82565b8015610dd55780601f10610daa57610100808354040283529160200191610dd5565b820191906000526020600020905b815481529060010190602001808311610db857829003601f168201915b505050505081565b600080610de9836120cf565b9050600073ffffffffffffffffffffffffffffffffffffffff168173ffffffffffffffffffffffffffffffffffffffff161415610e5b576040517f08c379a0000000000000000000000000000000000000000000000000000000008152600401610e5290613eb1565b60405180910390fd5b80915050919050565b60008073ffffffffffffffffffffffffffffffffffffffff168273ffffffffffffffffffffffffffffffffffffffff161415610ed5576040517f08c379a0000000000000000000000000000000000000000000000000000000008152600401610ecc90613f43565b60405180910390fd5b600360008373ffffffffffffffffffffffffffffffffffffffff1673ffffffffffffffffffffffffffffffffffffffff168152602001908152602001600020549050919050565b600e60009054906101000a900473ffffffffffffffffffffffffffffffffffffffff1681565b6000600e60009054906101000a900473ffffffffffffffffffffffffffffffffffffffff1673ffffffffffffffffffffffffffffffffffffffff163373ffffffffffffffffffffffffffffffffffffffff1614905090565b606060018054610fa990613b82565b80601f0160208091040260200160405190810160405280929190818152602001828054610fd590613b82565b80156110225780601f10610ff757610100808354040283529160200191611022565b820191906000526020600020905b81548152906001019060200180831161100557829003601f168201915b5050505050905090565b6000600361107d84848080601f016020809104026020016040519081016040528093929190818152602001838380828437600081840152601f19601f8201169050808301925050505050505061210c565b101580156110d85750600a6110d584848080601f016020809104026020016040519081016040528093929190818152602001838380828437600081840152601f19601f8201169050808301925050505050505061210c565b11155b905092915050565b6110f26110eb611c7f565b83836122c1565b5050565b611107611101611c7f565b83611d40565b611146576040517f08c379a000000000000000000000000000000000000000000000000000000000815260040161113d90613d93565b60405180910390fd5b6111528484848461242e565b50505050565b6000600b838360405161116c929190613d08565b908152602001604051809103902060009054906101000a900473ffffffffffffffffffffffffffffffffffffffff16905092915050565b600b84846040516111b5929190613d08565b908152602001604051809103902060009054906101000a900473ffffffffffffffffffffffffffffffffffffffff1673ffffffffffffffffffffffffffffffffffffffff163373ffffffffffffffffffffffffffffffffffffffff1614611248576040517f82b4290000000000000000000000000000000000000000000000000000000000815260040160405180910390fd5b8181600c868660405161125c929190613d08565b908152602001604051809103902091906112779291906130e5565b5050505050565b606061128982611c34565b60006006600084815260200190815260200160002080546112a990613b82565b80601f01602080910402602001604051908101604052809291908181526020018280546112d590613b82565b80156113225780601f106112f757610100808354040283529160200191611322565b820191906000526020600020905b81548152906001019060200180831161130557829003601f168201915b50505050509050600061133361248a565b905060008151141561134957819250505061138c565b60008251111561137e578082604051602001611366929190613f94565b6040516020818303038152906040529250505061138c565b611387846124a1565b925050505b919050565b6000600560008473ffffffffffffffffffffffffffffffffffffffff1673ffffffffffffffffffffffffffffffffffffffff16815260200190815260200160002060008373ffffffffffffffffffffffffffffffffffffffff1673ffffffffffffffffffffffffffffffffffffffff16815260200190815260200160002060009054906101000a900460ff16905092915050565b600073ffffffffffffffffffffffffffffffffffffffff16600b838360405161144f929190613d08565b908152602001604051809103902060009054906101000a900473ffffffffffffffffffffffffffffffffffffffff1673ffffffffffffffffffffffffffffffffffffffff16146114cb576040517f3a81d6fc00000000000000000000000000000000000000000000000000000000815260040160405180910390fd5b6114d5828261102c565b6115185781816040517f7f19f48d00000000000000000000000000000000000000000000000000000000815260040161150f929190613fe5565b60405180910390fd5b60006115248383611a8b565b905080341015611569576040517f08c379a000000000000000000000000000000000000000000000000000000000815260040161156090614055565b60405180910390fd5b60008383600860405160200161158193929190614155565b60405160208183030381529060405290506000600982600a6040516020016115ab93929190614186565b604051602081830303815290604052905060006115c86007612509565b905060006115d66007612509565b9050600061162788888080601f016020809104026020016040519081016040528093929190818152602001838380828437600081840152601f19601f8201169050808301925050505050505061210c565b9050600061163482612517565b9050611728604051806060016040528060328152602001614b2f603291398a8a8080601f016020809104026020016040519081016040528093929190818152602001838380828437600081840152601f19601f82011690508083019250505050505050600880546116a490613b82565b80601f01602080910402602001604051908101604052809291908181526020018280546116d090613b82565b801561171d5780601f106116f25761010080835404028352916020019161171d565b820191906000526020600020905b81548152906001019060200180831161170057829003601f168201915b5050505050876125ef565b600061175e8761173788612691565b8460405160200161174a93929190614333565b604051602081830303815290604052612691565b905060008160405160200161177391906143dc565b60405160208183030381529060405290506117a5604051806060016040528060388152602001614bb760389139611b31565b6117e46040518060400160405280600e81526020017f46696e616c20746f6b656e555249000000000000000000000000000000000000815250826127f5565b611805604051806060016040528060328152602001614c2f60329139611b31565b61180f3387612891565b61183185604051806060016040528060358152602001614b82603591396128af565b33600b8c8c604051611844929190613d08565b908152602001604051809103902060006101000a81548173ffffffffffffffffffffffffffffffffffffffff021916908373ffffffffffffffffffffffffffffffffffffffff1602179055508a8a600d600089815260200190815260200160002091906118b29291906130e5565b506118bd6007612923565b5050505050505050505050565b60606118ed604051806060016040528060218152602001614b6160219139611b31565b60006118f96007612509565b67ffffffffffffffff811115611912576119116135cd565b5b60405190808252806020026020018201604052801561194557816020015b60608152602001906001900390816119305790505b50905060005b6119556007612509565b811015611a8357600d6000828152602001908152602001600020805461197a90613b82565b80601f01602080910402602001604051908101604052809291908181526020018280546119a690613b82565b80156119f35780601f106119c8576101008083540402835291602001916119f3565b820191906000526020600020905b8154815290600101906020018083116119d657829003601f168201915b5050505050828281518110611a0b57611a0a6143fe565b5b6020026020010181905250611a706040518060400160405280601781526020017f6e616d6520666f7220746f6b656e20256420697320257300000000000000000081525082848481518110611a6357611a626143fe565b5b6020026020010151612939565b8080611a7b9061445c565b91505061194b565b508091505090565b600080611adb84848080601f016020809104026020016040519081016040528093929190818152602001838380828437600081840152601f19601f8201169050808301925050505050505061210c565b905060008111611aea57600080fd5b6003811415611b04576706f05b59d3b20000915050611b2b565b6004811415611b1e57670429d069189e0000915050611b2b565b67016345785d8a00009150505b92915050565b611bc781604051602401611b459190613376565b6040516020818303038152906040527f41304fac000000000000000000000000000000000000000000000000000000007bffffffffffffffffffffffffffffffffffffffffffffffffffffffff19166020820180517bffffffffffffffffffffffffffffffffffffffffffffffffffffffff83818316178352505050506129d8565b50565b60007f01ffc9a7000000000000000000000000000000000000000000000000000000007bffffffffffffffffffffffffffffffffffffffffffffffffffffffff1916827bffffffffffffffffffffffffffffffffffffffffffffffffffffffff1916149050919050565b611c3d81612a01565b611c7c576040517f08c379a0000000000000000000000000000000000000000000000000000000008152600401611c7390613eb1565b60405180910390fd5b50565b600033905090565b816004600083815260200190815260200160002060006101000a81548173ffffffffffffffffffffffffffffffffffffffff021916908373ffffffffffffffffffffffffffffffffffffffff160217905550808273ffffffffffffffffffffffffffffffffffffffff16611cfa83610ddd565b73ffffffffffffffffffffffffffffffffffffffff167f8c5be1e5ebec7d5bd14f71427d1e84f3dd0314c0f7b2291e5b200ac8c7c3b92560405160405180910390a45050565b600080611d4c83610ddd565b90508073ffffffffffffffffffffffffffffffffffffffff168473ffffffffffffffffffffffffffffffffffffffff161480611d8e5750611d8d8185611391565b5b80611dcc57508373ffffffffffffffffffffffffffffffffffffffff16611db484610859565b73ffffffffffffffffffffffffffffffffffffffff16145b91505092915050565b8273ffffffffffffffffffffffffffffffffffffffff16611df582610ddd565b73ffffffffffffffffffffffffffffffffffffffff1614611e4b576040517f08c379a0000000000000000000000000000000000000000000000000000000008152600401611e4290614517565b60405180910390fd5b600073ffffffffffffffffffffffffffffffffffffffff168273ffffffffffffffffffffffffffffffffffffffff161415611ebb576040517f08c379a0000000000000000000000000000000000000000000000000000000008152600401611eb2906145a9565b60405180910390fd5b611ec88383836001612a42565b8273ffffffffffffffffffffffffffffffffffffffff16611ee882610ddd565b73ffffffffffffffffffffffffffffffffffffffff1614611f3e576040517f08c379a0000000000000000000000000000000000000000000000000000000008152600401611f3590614517565b60405180910390fd5b6004600082815260200190815260200160002060006101000a81549073ffffffffffffffffffffffffffffffffffffffff02191690556001600360008573ffffffffffffffffffffffffffffffffffffffff1673ffffffffffffffffffffffffffffffffffffffff168152602001908152602001600020600082825403925050819055506001600360008473ffffffffffffffffffffffffffffffffffffffff1673ffffffffffffffffffffffffffffffffffffffff16815260200190815260200160002060008282540192505081905550816002600083815260200190815260200160002060006101000a81548173ffffffffffffffffffffffffffffffffffffffff021916908373ffffffffffffffffffffffffffffffffffffffff160217905550808273ffffffffffffffffffffffffffffffffffffffff168473ffffffffffffffffffffffffffffffffffffffff167fddf252ad1be2c89b69c2b068fc378daa952ba7f163c4a11628f55a4df523b3ef60405160405180910390a46120ca8383836001612b68565b505050565b60006002600083815260200190815260200160002060009054906101000a900473ffffffffffffffffffffffffffffffffffffffff169050919050565b60008060008084519050600092505b808210156122b6576000858381518110612138576121376143fe565b5b602001015160f81c60f81b9050608060f81b817effffffffffffffffffffffffffffffffffffffffffffffffffffffffffffff191610156121875760018361218091906145c9565b92506122a2565b60e060f81b817effffffffffffffffffffffffffffffffffffffffffffffffffffffffffffff191610156121c9576002836121c291906145c9565b92506122a1565b60f060f81b817effffffffffffffffffffffffffffffffffffffffffffffffffffffffffffff1916101561220b5760038361220491906145c9565b92506122a0565b60f8801b817effffffffffffffffffffffffffffffffffffffffffffffffffffffffffffff1916101561224c5760048361224591906145c9565b925061229f565b60fc60f81b817effffffffffffffffffffffffffffffffffffffffffffffffffffffffffffff1916101561228e5760058361228791906145c9565b925061229e565b60068361229b91906145c9565b92505b5b5b5b5b5082806122ae9061445c565b93505061211b565b829350505050919050565b8173ffffffffffffffffffffffffffffffffffffffff168373ffffffffffffffffffffffffffffffffffffffff161415612330576040517f08c379a00000000000000000000000000000000000000000000000000000000081526004016123279061466b565b60405180910390fd5b80600560008573ffffffffffffffffffffffffffffffffffffffff1673ffffffffffffffffffffffffffffffffffffffff16815260200190815260200160002060008473ffffffffffffffffffffffffffffffffffffffff1673ffffffffffffffffffffffffffffffffffffffff16815260200190815260200160002060006101000a81548160ff0219169083151502179055508173ffffffffffffffffffffffffffffffffffffffff168373ffffffffffffffffffffffffffffffffffffffff167f17307eab39ab6107e8899845ad3d59bd9653f200f220920489ca2b5937696c318360405161242191906132c2565b60405180910390a3505050565b612439848484611dd5565b61244584848484612b6e565b612484576040517f08c379a000000000000000000000000000000000000000000000000000000000815260040161247b906146fd565b60405180910390fd5b50505050565b606060405180602001604052806000815250905090565b60606124ac82611c34565b60006124b661248a565b905060008151116124d65760405180602001604052806000815250612501565b806124e084612517565b6040516020016124f1929190613f94565b6040516020818303038152906040525b915050919050565b600081600001549050919050565b60606000600161252684612cf6565b01905060008167ffffffffffffffff811115612545576125446135cd565b5b6040519080825280601f01601f1916602001820160405280156125775781602001600182028036833780820191505090505b509050600082602001820190505b6001156125e4578080600190039150507f3031323334353637383961626364656600000000000000000000000000000000600a86061a8153600a85816125ce576125cd61471d565b5b04945060008514156125df576125e4565b612585565b819350505050919050565b61268b84848484604051602401612609949392919061474c565b6040516020818303038152906040527f8eafb02b000000000000000000000000000000000000000000000000000000007bffffffffffffffffffffffffffffffffffffffffffffffffffffffff19166020820180517bffffffffffffffffffffffffffffffffffffffffffffffffffffffff83818316178352505050506129d8565b50505050565b60606000825114156126b4576040518060200160405280600081525090506127f0565b6000604051806060016040528060408152602001614bef60409139905060006003600285516126e391906145c9565b6126ed91906147a6565b60046126f991906147d7565b67ffffffffffffffff811115612712576127116135cd565b5b6040519080825280601f01601f1916602001820160405280156127445781602001600182028036833780820191505090505b509050600182016020820185865187015b808210156127b0576003820191508151603f8160121c168501518453600184019350603f81600c1c168501518453600184019350603f8160061c168501518453600184019350603f8116850151845360018401935050612755565b50506003865106600181146127cc57600281146127df576127e7565b603d6001830353603d60028303536127e7565b603d60018303535b50505080925050505b919050565b61288d828260405160240161280b929190614831565b6040516020818303038152906040527f4b5c4277000000000000000000000000000000000000000000000000000000007bffffffffffffffffffffffffffffffffffffffffffffffffffffffff19166020820180517bffffffffffffffffffffffffffffffffffffffffffffffffffffffff83818316178352505050506129d8565b5050565b6128ab828260405180602001604052806000815250612e49565b5050565b6128b882612a01565b6128f7576040517f08c379a00000000000000000000000000000000000000000000000000000000081526004016128ee906148da565b60405180910390fd5b8060066000848152602001908152602001600020908051906020019061291e92919061316b565b505050565b6001816000016000828254019250508190555050565b6129d3838383604051602401612951939291906148fa565b6040516020818303038152906040527f5970e089000000000000000000000000000000000000000000000000000000007bffffffffffffffffffffffffffffffffffffffffffffffffffffffff19166020820180517bffffffffffffffffffffffffffffffffffffffffffffffffffffffff83818316178352505050506129d8565b505050565b60008151905060006a636f6e736f6c652e6c6f679050602083016000808483855afa5050505050565b60008073ffffffffffffffffffffffffffffffffffffffff16612a23836120cf565b73ffffffffffffffffffffffffffffffffffffffff1614159050919050565b6001811115612b6257600073ffffffffffffffffffffffffffffffffffffffff168473ffffffffffffffffffffffffffffffffffffffff1614612ad65780600360008673ffffffffffffffffffffffffffffffffffffffff1673ffffffffffffffffffffffffffffffffffffffff1681526020019081526020016000206000828254612ace919061493f565b925050819055505b600073ffffffffffffffffffffffffffffffffffffffff168373ffffffffffffffffffffffffffffffffffffffff1614612b615780600360008573ffffffffffffffffffffffffffffffffffffffff1673ffffffffffffffffffffffffffffffffffffffff1681526020019081526020016000206000828254612b5991906145c9565b925050819055505b5b50505050565b50505050565b6000612b8f8473ffffffffffffffffffffffffffffffffffffffff16612ea4565b15612ce9578373ffffffffffffffffffffffffffffffffffffffff1663150b7a02612bb8611c7f565b8786866040518563ffffffff1660e01b8152600401612bda94939291906149c8565b6020604051808303816000875af1925050508015612c1657506040513d601f19601f82011682018060405250810190612c139190614a29565b60015b612c99573d8060008114612c46576040519150601f19603f3d011682016040523d82523d6000602084013e612c4b565b606091505b50600081511415612c91576040517f08c379a0000000000000000000000000000000000000000000000000000000008152600401612c88906146fd565b60405180910390fd5b805181602001fd5b63150b7a0260e01b7bffffffffffffffffffffffffffffffffffffffffffffffffffffffff1916817bffffffffffffffffffffffffffffffffffffffffffffffffffffffff191614915050612cee565b600190505b949350505050565b600080600090507a184f03e93ff9f4daa797ed6e38ed64bf6a1f0100000000000000008310612d54577a184f03e93ff9f4daa797ed6e38ed64bf6a1f0100000000000000008381612d4a57612d4961471d565b5b0492506040810190505b6d04ee2d6d415b85acef81000000008310612d91576d04ee2d6d415b85acef81000000008381612d8757612d8661471d565b5b0492506020810190505b662386f26fc100008310612dc057662386f26fc100008381612db657612db561471d565b5b0492506010810190505b6305f5e1008310612de9576305f5e1008381612ddf57612dde61471d565b5b0492506008810190505b6127108310612e0e576127108381612e0457612e0361471d565b5b0492506004810190505b60648310612e315760648381612e2757612e2661471d565b5b0492506002810190505b600a8310612e40576001810190505b80915050919050565b612e538383612ec7565b612e606000848484612b6e565b612e9f576040517f08c379a0000000000000000000000000000000000000000000000000000000008152600401612e96906146fd565b60405180910390fd5b505050565b6000808273ffffffffffffffffffffffffffffffffffffffff163b119050919050565b600073ffffffffffffffffffffffffffffffffffffffff168273ffffffffffffffffffffffffffffffffffffffff161415612f37576040517f08c379a0000000000000000000000000000000000000000000000000000000008152600401612f2e90614aa2565b60405180910390fd5b612f4081612a01565b15612f80576040517f08c379a0000000000000000000000000000000000000000000000000000000008152600401612f7790614b0e565b60405180910390fd5b612f8e600083836001612a42565b612f9781612a01565b15612fd7576040517f08c379a0000000000000000000000000000000000000000000000000000000008152600401612fce90614b0e565b60405180910390fd5b6001600360008473ffffffffffffffffffffffffffffffffffffffff1673ffffffffffffffffffffffffffffffffffffffff16815260200190815260200160002060008282540192505081905550816002600083815260200190815260200160002060006101000a81548173ffffffffffffffffffffffffffffffffffffffff021916908373ffffffffffffffffffffffffffffffffffffffff160217905550808273ffffffffffffffffffffffffffffffffffffffff16600073ffffffffffffffffffffffffffffffffffffffff167fddf252ad1be2c89b69c2b068fc378daa952ba7f163c4a11628f55a4df523b3ef60405160405180910390a46130e1600083836001612b68565b5050565b8280546130f190613b82565b90600052602060002090601f016020900481019282613113576000855561315a565b82601f1061312c57803560ff191683800117855561315a565b8280016001018555821561315a579182015b8281111561315957823582559160200191906001019061313e565b5b50905061316791906131f1565b5090565b82805461317790613b82565b90600052602060002090601f01602090048101928261319957600085556131e0565b82601f106131b257805160ff19168380011785556131e0565b828001600101855582156131e0579182015b828111156131df5782518255916020019190600101906131c4565b5b5090506131ed91906131f1565b5090565b5b8082111561320a5760008160009055506001016131f2565b5090565b6000604051905090565b600080fd5b600080fd5b60007fffffffff0000000000000000000000000000000000000000000000000000000082169050919050565b61325781613222565b811461326257600080fd5b50565b6000813590506132748161324e565b92915050565b6000602082840312156132905761328f613218565b5b600061329e84828501613265565b91505092915050565b60008115159050919050565b6132bc816132a7565b82525050565b60006020820190506132d760008301846132b3565b92915050565b600081519050919050565b600082825260208201905092915050565b60005b838110156133175780820151818401526020810190506132fc565b83811115613326576000848401525b50505050565b6000601f19601f8301169050919050565b6000613348826132dd565b61335281856132e8565b93506133628185602086016132f9565b61336b8161332c565b840191505092915050565b60006020820190508181036000830152613390818461333d565b905092915050565b6000819050919050565b6133ab81613398565b81146133b657600080fd5b50565b6000813590506133c8816133a2565b92915050565b6000602082840312156133e4576133e3613218565b5b60006133f2848285016133b9565b91505092915050565b600073ffffffffffffffffffffffffffffffffffffffff82169050919050565b6000613426826133fb565b9050919050565b6134368161341b565b82525050565b6000602082019050613451600083018461342d565b92915050565b6134608161341b565b811461346b57600080fd5b50565b60008135905061347d81613457565b92915050565b6000806040838503121561349a57613499613218565b5b60006134a88582860161346e565b92505060206134b9858286016133b9565b9150509250929050565b600080fd5b600080fd5b600080fd5b60008083601f8401126134e8576134e76134c3565b5b8235905067ffffffffffffffff811115613505576135046134c8565b5b602083019150836001820283011115613521576135206134cd565b5b9250929050565b6000806020838503121561353f5761353e613218565b5b600083013567ffffffffffffffff81111561355d5761355c61321d565b5b613569858286016134d2565b92509250509250929050565b60008060006060848603121561358e5761358d613218565b5b600061359c8682870161346e565b93505060206135ad8682870161346e565b92505060406135be868287016133b9565b9150509250925092565b600080fd5b7f4e487b7100000000000000000000000000000000000000000000000000000000600052604160045260246000fd5b6136058261332c565b810181811067ffffffffffffffff82111715613624576136236135cd565b5b80604052505050565b600061363761320e565b905061364382826135fc565b919050565b600067ffffffffffffffff821115613663576136626135cd565b5b61366c8261332c565b9050602081019050919050565b82818337600083830152505050565b600061369b61369684613648565b61362d565b9050828152602081018484840111156136b7576136b66135c8565b5b6136c2848285613679565b509392505050565b600082601f8301126136df576136de6134c3565b5b81356136ef848260208601613688565b91505092915050565b60006020828403121561370e5761370d613218565b5b600082013567ffffffffffffffff81111561372c5761372b61321d565b5b613738848285016136ca565b91505092915050565b60006020828403121561375757613756613218565b5b60006137658482850161346e565b91505092915050565b61377781613398565b82525050565b6000602082019050613792600083018461376e565b92915050565b60006137a3826133fb565b9050919050565b6137b381613798565b82525050565b60006020820190506137ce60008301846137aa565b92915050565b6137dd816132a7565b81146137e857600080fd5b50565b6000813590506137fa816137d4565b92915050565b6000806040838503121561381757613816613218565b5b60006138258582860161346e565b9250506020613836858286016137eb565b9150509250929050565b600067ffffffffffffffff82111561385b5761385a6135cd565b5b6138648261332c565b9050602081019050919050565b600061388461387f84613840565b61362d565b9050828152602081018484840111156138a05761389f6135c8565b5b6138ab848285613679565b509392505050565b600082601f8301126138c8576138c76134c3565b5b81356138d8848260208601613871565b91505092915050565b600080600080608085870312156138fb576138fa613218565b5b60006139098782880161346e565b945050602061391a8782880161346e565b935050604061392b878288016133b9565b925050606085013567ffffffffffffffff81111561394c5761394b61321d565b5b613958878288016138b3565b91505092959194509250565b6000806000806040858703121561397e5761397d613218565b5b600085013567ffffffffffffffff81111561399c5761399b61321d565b5b6139a8878288016134d2565b9450945050602085013567ffffffffffffffff8111156139cb576139ca61321d565b5b6139d7878288016134d2565b925092505092959194509250565b600080604083850312156139fc576139fb613218565b5b6000613a0a8582860161346e565b9250506020613a1b8582860161346e565b9150509250929050565b600081519050919050565b600082825260208201905092915050565b6000819050602082019050919050565b600082825260208201905092915050565b6000613a6d826132dd565b613a778185613a51565b9350613a878185602086016132f9565b613a908161332c565b840191505092915050565b6000613aa78383613a62565b905092915050565b6000602082019050919050565b6000613ac782613a25565b613ad18185613a30565b935083602082028501613ae385613a41565b8060005b85811015613b1f5784840389528151613b008582613a9b565b9450613b0b83613aaf565b925060208a01995050600181019050613ae7565b50829750879550505050505092915050565b60006020820190508181036000830152613b4b8184613abc565b905092915050565b7f4e487b7100000000000000000000000000000000000000000000000000000000600052602260045260246000fd5b60006002820490506001821680613b9a57607f821691505b60208210811415613bae57613bad613b53565b5b50919050565b7f4552433732313a20617070726f76616c20746f2063757272656e74206f776e6560008201527f7200000000000000000000000000000000000000000000000000000000000000602082015250565b6000613c106021836132e8565b9150613c1b82613bb4565b604082019050919050565b60006020820190508181036000830152613c3f81613c03565b9050919050565b7f4552433732313a20617070726f76652063616c6c6572206973206e6f7420746f60008201527f6b656e206f776e6572206f7220617070726f76656420666f7220616c6c000000602082015250565b6000613ca2603d836132e8565b9150613cad82613c46565b604082019050919050565b60006020820190508181036000830152613cd181613c95565b9050919050565b600081905092915050565b6000613cef8385613cd8565b9350613cfc838584613679565b82840190509392505050565b6000613d15828486613ce3565b91508190509392505050565b7f4552433732313a2063616c6c6572206973206e6f7420746f6b656e206f776e6560008201527f72206f7220617070726f76656400000000000000000000000000000000000000602082015250565b6000613d7d602d836132e8565b9150613d8882613d21565b604082019050919050565b60006020820190508181036000830152613dac81613d70565b9050919050565b600081905092915050565b50565b6000613dce600083613db3565b9150613dd982613dbe565b600082019050919050565b6000613def82613dc1565b9150819050919050565b7f4661696c656420746f2077697468647261772066756e64730000000000000000600082015250565b6000613e2f6018836132e8565b9150613e3a82613df9565b602082019050919050565b60006020820190508181036000830152613e5e81613e22565b9050919050565b7f4552433732313a20696e76616c696420746f6b656e2049440000000000000000600082015250565b6000613e9b6018836132e8565b9150613ea682613e65565b602082019050919050565b60006020820190508181036000830152613eca81613e8e565b9050919050565b7f4552433732313a2061646472657373207a65726f206973206e6f74206120766160008201527f6c6964206f776e65720000000000000000000000000000000000000000000000602082015250565b6000613f2d6029836132e8565b9150613f3882613ed1565b604082019050919050565b60006020820190508181036000830152613f5c81613f20565b9050919050565b6000613f6e826132dd565b613f788185613cd8565b9350613f888185602086016132f9565b80840191505092915050565b6000613fa08285613f63565b9150613fac8284613f63565b91508190509392505050565b6000613fc483856132e8565b9350613fd1838584613679565b613fda8361332c565b840190509392505050565b60006020820190508181036000830152614000818486613fb8565b90509392505050565b7f4e6f7420656e6f756768206d6174696320706169640000000000000000000000600082015250565b600061403f6015836132e8565b915061404a82614009565b602082019050919050565b6000602082019050818103600083015261406e81614032565b9050919050565b7f2e00000000000000000000000000000000000000000000000000000000000000600082015250565b60006140ab600183613cd8565b91506140b682614075565b600182019050919050565b60008190508160005260206000209050919050565b600081546140e381613b82565b6140ed8186613cd8565b9450600182166000811461410857600181146141195761414c565b60ff1983168652818601935061414c565b614122856140c1565b60005b8381101561414457815481890152600182019150602081019050614125565b838801955050505b50505092915050565b6000614162828587613ce3565b915061416d8261409e565b915061417982846140d6565b9150819050949350505050565b600061419282866140d6565b915061419e8285613f63565b91506141aa82846140d6565b9150819050949350505050565b7f7b226e616d65223a202200000000000000000000000000000000000000000000600082015250565b60006141ed600a83613cd8565b91506141f8826141b7565b600a82019050919050565b7f222c20226465736372697074696f6e223a20224120646f6d61696e206f6e207460008201527f6865204f6b77617265206e616d652073657276696365222c2022696d6167652260208201527f3a2022646174613a696d6167652f7376672b786d6c3b6261736536342c000000604082015250565b6000614285605d83613cd8565b915061429082614203565b605d82019050919050565b7f222c226c656e677468223a220000000000000000000000000000000000000000600082015250565b60006142d1600c83613cd8565b91506142dc8261429b565b600c82019050919050565b7f227d000000000000000000000000000000000000000000000000000000000000600082015250565b600061431d600283613cd8565b9150614328826142e7565b600282019050919050565b600061433e826141e0565b915061434a8286613f63565b915061435582614278565b91506143618285613f63565b915061436c826142c4565b91506143788284613f63565b915061438382614310565b9150819050949350505050565b7f646174613a6170706c69636174696f6e2f6a736f6e3b6261736536342c000000600082015250565b60006143c6601d83613cd8565b91506143d182614390565b601d82019050919050565b60006143e7826143b9565b91506143f38284613f63565b915081905092915050565b7f4e487b7100000000000000000000000000000000000000000000000000000000600052603260045260246000fd5b7f4e487b7100000000000000000000000000000000000000000000000000000000600052601160045260246000fd5b600061446782613398565b91507fffffffffffffffffffffffffffffffffffffffffffffffffffffffffffffffff82141561449a5761449961442d565b5b600182019050919050565b7f4552433732313a207472616e736665722066726f6d20696e636f72726563742060008201527f6f776e6572000000000000000000000000000000000000000000000000000000602082015250565b60006145016025836132e8565b915061450c826144a5565b604082019050919050565b60006020820190508181036000830152614530816144f4565b9050919050565b7f4552433732313a207472616e7366657220746f20746865207a65726f2061646460008201527f7265737300000000000000000000000000000000000000000000000000000000602082015250565b60006145936024836132e8565b915061459e82614537565b604082019050919050565b600060208201905081810360008301526145c281614586565b9050919050565b60006145d482613398565b91506145df83613398565b9250827fffffffffffffffffffffffffffffffffffffffffffffffffffffffffffffffff038211156146145761461361442d565b5b828201905092915050565b7f4552433732313a20617070726f766520746f2063616c6c657200000000000000600082015250565b60006146556019836132e8565b91506146608261461f565b602082019050919050565b6000602082019050818103600083015261468481614648565b9050919050565b7f4552433732313a207472616e7366657220746f206e6f6e20455243373231526560008201527f63656976657220696d706c656d656e7465720000000000000000000000000000602082015250565b60006146e76032836132e8565b91506146f28261468b565b604082019050919050565b60006020820190508181036000830152614716816146da565b9050919050565b7f4e487b7100000000000000000000000000000000000000000000000000000000600052601260045260246000fd5b60006080820190508181036000830152614766818761333d565b9050818103602083015261477a818661333d565b9050818103604083015261478e818561333d565b905061479d606083018461376e565b95945050505050565b60006147b182613398565b91506147bc83613398565b9250826147cc576147cb61471d565b5b828204905092915050565b60006147e282613398565b91506147ed83613398565b9250817fffffffffffffffffffffffffffffffffffffffffffffffffffffffffffffffff04831182151516156148265761482561442d565b5b828202905092915050565b6000604082019050818103600083015261484b818561333d565b9050818103602083015261485f818461333d565b90509392505050565b7f45524337323155524953746f726167653a2055524920736574206f66206e6f6e60008201527f6578697374656e7420746f6b656e000000000000000000000000000000000000602082015250565b60006148c4602e836132e8565b91506148cf82614868565b604082019050919050565b600060208201905081810360008301526148f3816148b7565b9050919050565b60006060820190508181036000830152614914818661333d565b9050614923602083018561376e565b8181036040830152614935818461333d565b9050949350505050565b600061494a82613398565b915061495583613398565b9250828210156149685761496761442d565b5b828203905092915050565b600081519050919050565b600082825260208201905092915050565b600061499a82614973565b6149a4818561497e565b93506149b48185602086016132f9565b6149bd8161332c565b840191505092915050565b60006080820190506149dd600083018761342d565b6149ea602083018661342d565b6149f7604083018561376e565b8181036060830152614a09818461498f565b905095945050505050565b600081519050614a238161324e565b92915050565b600060208284031215614a3f57614a3e613218565b5b6000614a4d84828501614a14565b91505092915050565b7f4552433732313a206d696e7420746f20746865207a65726f2061646472657373600082015250565b6000614a8c6020836132e8565b9150614a9782614a56565b602082019050919050565b60006020820190508181036000830152614abb81614a7f565b9050919050565b7f4552433732313a20746f6b656e20616c7265616479206d696e74656400000000600082015250565b6000614af8601c836132e8565b9150614b0382614ac2565b602082019050919050565b60006020820190508181036000830152614b2781614aeb565b905091905056fe5265676973746572696e672025732e202573206f6e2074686520636f6e7472616374207769746820746f6b656e494420256447657474696e6720616c6c206e616d657320696e2074686520636f6e7472616374697066733a2f2f516d656836543262784e45693741445153573341544a626856596e6453456639343271534553706b664d566173420a2d2d2d2d2d2d2d2d2d2d2d2d2d2d2d2d2d2d2d2d2d2d2d2d2d2d2d2d2d2d2d2d2d2d2d2d2d2d2d2d2d2d2d2d2d2d2d2d2d2d2d2d2d2d2d4142434445464748494a4b4c4d4e4f505152535455565758595a6162636465666768696a6b6c6d6e6f707172737475767778797a303132333435363738392b2f2d2d2d2d2d2d2d2d2d2d2d2d2d2d2d2d2d2d2d2d2d2d2d2d2d2d2d2d2d2d2d2d2d2d2d2d2d2d2d2d2d2d2d2d2d2d2d2d2d0aa264697066735822122093dfe2aeeb62c9b8c6d2120530ef1e7ce756c12abbc1599ee9b9e5929223259064736f6c634300080a00333c73766720786d6c6e733d22687474703a2f2f7777772e77332e6f72672f323030302f737667222077696474683d2232373022206865696768743d22323730222066696c6c3d226e6f6e65223e3c706174682066696c6c3d2275726c282342292220643d224d302030683237307632373048307a222f3e3c646566733e3c66696c7465722069643d22412220636f6c6f722d696e746572706f6c6174696f6e2d66696c746572733d2273524742222066696c746572556e6974733d227573657253706163654f6e55736522206865696768743d22323730222077696474683d22323730223e3c666544726f70536861646f772064783d2230222064793d22312220737464446576696174696f6e3d22322220666c6f6f642d6f7061636974793d222e323235222077696474683d223230302522206865696768743d2232303025222f3e3c2f66696c7465723e3c2f646566733e3c7061746820643d224d37322e3836332034322e393439632d2e3636382d2e3338372d312e3432362d2e35392d322e3139372d2e3539732d312e3532392e3230342d322e3139372e35396c2d31302e30383120362e3033322d362e383520332e3933342d31302e30383120362e303332632d2e3636382e3338372d312e3432362e35392d322e3139372e3539732d312e3532392d2e3230342d322e3139372d2e35396c2d382e3031332d342e37323161342e353220342e35322030203020312d312e3538392d312e363136632d2e3338342d2e3636352d2e3539342d312e3431382d2e3630382d322e313837762d392e3331632d2e3031332d2e3737352e3138352d312e3533382e3537322d322e32303861342e323520342e323520302030203120312e3632352d312e3539356c372e3838342d342e3539632e3636382d2e33383720312e3432362d2e353920322e3139372d2e353973312e3532392e32303420322e3139372e35396c372e38383420342e353961342e353220342e353220302030203120312e35383920312e363136632e3338342e3636352e35393420312e3431382e36303820322e31383776362e3033326c362e38352d342e303635762d362e303332632e3031332d2e3737352d2e3138352d312e3533382d2e3537322d322e32303861342e323520342e32352030203020302d312e3632352d312e3539354c34312e3435362032342e3539632d2e3636382d2e3338372d312e3432362d2e35392d322e3139372d2e3539732d312e3532392e3230342d322e3139372e35396c2d31342e38363420382e36353561342e323520342e32352030203020302d312e36323520312e353935632d2e3338372e36372d2e35383520312e3433342d2e35373220322e3230387631372e343431632d2e3031332e3737352e31383520312e3533382e35373220322e32303861342e323520342e323520302030203020312e36323520312e3539356c31342e38363420382e363535632e3636382e33383720312e3432362e353920322e3139372e353973312e3532392d2e32303420322e3139372d2e35396c31302e3038312d352e39303120362e38352d342e3036352031302e3038312d352e393031632e3636382d2e33383720312e3432362d2e353920322e3139372d2e353973312e3532392e32303420322e3139372e35396c372e38383420342e353961342e353220342e353220302030203120312e35383920312e363136632e3338342e3636352e35393420312e3431382e36303820322e31383776392e333131632e3031332e3737352d2e31383520312e3533382d2e35373220322e32303861342e323520342e32352030203020312d312e36323520312e3539356c2d372e38383420342e373231632d2e3636382e3338372d312e3432362e35392d322e3139372e3539732d312e3532392d2e3230342d322e3139372d2e35396c2d372e3838342d342e353961342e353220342e35322030203020312d312e3538392d312e363136632d2e3338352d2e3636352d2e3539342d312e3431382d2e3630382d322e313837762d362e3033326c2d362e383520342e30363576362e303332632d2e3031332e3737352e31383520312e3533382e35373220322e32303861342e323520342e323520302030203020312e36323520312e3539356c31342e38363420382e363535632e3636382e33383720312e3432362e353920322e3139372e353973312e3532392d2e32303420322e3139372d2e35396c31342e3836342d382e363535632e3635372d2e33393420312e3230342d2e393520312e3538392d312e363136732e3539342d312e3431382e3630392d322e3138375635352e353338632e3031332d2e3737352d2e3138352d312e3533382d2e3537322d322e32303861342e323520342e32352030203020302d312e3632352d312e3539356c2d31342e3939332d382e3738367a222066696c6c3d2223666666222f3e3c646566733e3c6c696e6561724772616469656e742069643d2242222078313d2230222079313d2230222078323d22323730222079323d2232373022206772616469656e74556e6974733d227573657253706163654f6e557365223e3c73746f702073746f702d636f6c6f723d2223636235656565222f3e3c73746f70206f66667365743d2231222073746f702d636f6c6f723d2223306364376534222073746f702d6f7061636974793d222e3939222f3e3c2f6c696e6561724772616469656e743e3c2f646566733e3c7465787420783d2233322e352220793d223233312220666f6e742d73697a653d223237222066696c6c3d2223666666222066696c7465723d2275726c282341292220666f6e742d66616d696c793d22506c7573204a616b617274612053616e732c44656a6156752053616e732c4e6f746f20436f6c6f7220456d6f6a692c4170706c6520436f6c6f7220456d6f6a692c73616e732d73657269662220666f6e742d7765696768743d22626f6c64223e",
  "linkReferences": {},
  "deployedLinkReferences": {}
}